:020000040800F2
:10000000900A002069020008551C00084D1A0008DB
:10001000511C0008C10500088B1E000800000000EC
:100020000000000000000000000000005B1C000851
:10003000C505000800000000591C00085D1C0008F0
:10004000830200088302000883020008830200087C
:10005000830200088302000883020008830200086C
:10006000830200088302000883020008830200085C
:10007000830200088302000883020008830200084C
:10008000830200088302000883020008830200083C
:10009000830200088302000883020008830200082C
:1000A000830200088302000883020008830200081C
:1000B000830200088302000883020008830200080C
:1000C00083020008830200088302000883020008FC
:1000D00083020008830200088302000883020008EC
:1000E00083020008830200088302000883020008DC
:1000F00083020008830200088302000883020008CC
:1001000083020008830200088302000883020008BB
:1001100083020008830200088302000883020008AB
:10012000830200088302000883020008830200089B
:10013000830200088302000883020008830200088B
:10014000830200088302000883020008830200087B
:10015000830200088302000883020008830200086B
:10016000830200088302000883020008830200085B
:1001700083020008830200088302000800000000D8
:10018000830200088302000800F002F800F05CF827
:100190000AA090E8000C82448344AAF10107DA45E2
:1001A00001D100F051F8AFF2090EBAE80F0013F0D8
:1001B000010F18BFFB1A43F001031847CC240000BD
:1001C000EC2400000A444FF0000C10F8013B13F03F
:1001D000070408BF10F8014B1D1108BF10F8015BA0
:1001E000641E05D010F8016B641E01F8016BF9D193
:1001F00013F0080F1EBF10F8014BAD1C0C1B09D1EA
:100200006D1E58BF01F801CBFAD505E014F8016B5B
:1002100001F8016B6D1EF9D59142D6D370470000ED
:100220000023002400250026103A28BF78C1FBD8FF
:10023000520728BF30C148BF0B6070471FB502F09E
:1002400011FA1FBD10B510BD00F0CFF81146FFF731
:10025000F5FF01F039FE00F0EDF803B4FFF7F2FF0F
:1002600003BC00F0F5F80000094880470948004742
:10027000FEE7FEE7FEE7FEE7FEE7FEE7FEE7FEE756
:10028000FEE7FEE704480549054A064B70470000B3
:10029000191D00088901000890040020900A002020
:1002A000900600209006002053EA020C00F06980BE
:1002B0002DE9F04B4FF00006002B1FBFB3FA83F57A
:1002C00003FA05F424FA05F65E4012BF1643B2FAAB
:1002D00082F502FA05F4C5F120051EBF22FA05FCDD
:1002E00044EA0C04203556EA044C4FEA144418BF83
:1002F000641C4FF000084FF00009904271EB030CB2
:1003000039D3002919BFB1FA81F701FA07F6B0FA1B
:1003100080F700FA07F6C7F120071EBF20FA07FC96
:1003200046EA0C062037B6FBF4FCA7EB0507103FA6
:1003300007F01F0BCBF120060CFA0BFB2CFA06F68C
:1003400044BFB3460026202FA4BF5E464FF0000BEB
:100350005BEA060C08BF4FF0010B19EB0B09ABFB76
:10036000027C48EB0608C01B06FB02CC0BFB03CC4F
:1003700071EB0C01C1E70B46024641464846BDE819
:10038000F08B13B54FF000004FF00001AFF3008089
:10039000BDE81C4070474FF0000200B5134694467C
:1003A0009646203922BFA0E80C50A0E80C50B1F1CD
:1003B0002001BFF4F7AF090728BFA0E80C5048BFE1
:1003C0000CC05DF804EB890028BF40F8042B08BF7F
:1003D000704748BF20F8022B11F0804F18BF00F87B
:1003E000012B7047704770477047754600F02CF836
:1003F000AE4605006946534620F00700854618B012
:1004000020B5FFF73FFFBDE820404FF000064FF05A
:1004100000074FF000084FF0000B21F00701AC4639
:10042000ACE8C009ACE8C009ACE8C009ACE8C00958
:100430008D46704710B50446AFF300802046BDE8F6
:100440001040FFF70ABF000000487047300400204A
:1004500001491820ABBEFEE72600020070470000ED
:1004600055494A6822F440324A604A6843681A4350
:100470004A600268526822F4807203685A60026817
:100480005368026943EA022203685A6002685268AC
:1004900022F0407203685A600268526883681A4307
:1004A00003685A600268926822F4006203689A60E6
:1004B00002689268C3681A4303689A603F4B826A75
:1004C0009A4218D00268926822F0706203689A60BB
:1004D00002689268836A1A4303689A6002689268A5
:1004E00022F0405203689A6002689268C36A1A4315
:1004F00003689A600BE00268926822F070620368F9
:100500009A600268926822F0405203689A6002681A
:10051000926822F0020203689A6002689368027E81
:1005200043EA420203689A602022125CA2B1026888
:10053000526842F4006203685A600268526822F40A
:10054000604203685A6002685368426A521E43EA76
:10055000423203685A6005E00268526822F4006281
:1005600003685A600268D26A22F470020368DA6291
:100570000268D36A828B521E43EA02520368DA622F
:100580000268926822F4007203689A6002689368B5
:1005900090F8302043EA422203689A600268926829
:1005A00022F4806203689A6002689368426943EAB1
:1005B000822203689A607047002301400100000F07
:1005C00000BFFEE7704772B600BFFEE738B50246CF
:1005D0000020009000BF92F83C00012801D10220C9
:1005E00038BD012082F83C0000BF0868092816D9F0
:1005F0001068C0680C780A3C04EB44050724AC4042
:10060000A0431468E0600C780A3C04EB440488685A
:10061000A0401468E46820431468E06013E01068A8
:1006200000690C7804EB44050724AC40A04314682F
:1006300020610C7804EB44048868A04014682469A5
:100640002043146820614868072817D21068406B5F
:100650000C79641E04EB84051F24AC40A04314688D
:100660006063088880B20C79641E04EB8404A040A7
:100670001468646B20431468606331E048680D2897
:1006800017D21068006B0C79E41F04EB84051F245B
:10069000AC40A04314682063088880B20C79E41F42
:1006A00004EB8404A0401468246B20431468206386
:1006B00016E01068C06A0C790D3C04EB84051F2419
:1006C000AC40A0431468E062088880B20C790D3C0D
:1006D00004EB8404A0401468E46A20431468E062D8
:1006E000194B1A4C1068A04206D10868122803D191
:1006F000586840F480005860144C1068A0421CD127
:100700000868102802D00868112816D1586840F4EB
:1007100000005860086810280FD10D4800680D4C83
:10072000B0FBF4F000EB80004000009002E0009885
:10073000401E009000980028F9D100BF002082F8E8
:100740003C0000BF00BF4BE70023014000200140F8
:100750004003002040420F0001460868C06C70470B
:1007600070B5044600250CB9012070BD1549A06A7A
:10077000884200D000BF206C30B9204600F024F839
:100780000020606484F83C00206C00F0100088B900
:10079000206C20F4885040F0020020642046FFF7CF
:1007A0005FFE00206064206C20F0020040F0010039
:1007B000206400E0012500BF002084F83C0000BF59
:1007C0002846D2E70100000F10B586B00446142178
:1007D00001A8FFF7E0FD3149206888422CD100BF15
:1007E000002000902E48006840F480702C4908607A
:1007F0000846006800F48070009000BF00BF00BF92
:100800000020009026481438006840F00100244978
:10081000143908600846006800F00100009000BF2D
:1008200000BF02200190032002900020039001A944
:100830001C4800F041FA2FE01B49206888422BD168
:1008400000BF002000901648006840F40070144972
:1008500008600846006800F40070009000BF00BF08
:1008600000BF002000900E481438006840F00100DE
:100870000B49143908600846006800F00100009038
:1008800000BF00BF042001900320029000200390CD
:1008900001A9044800F010FA06B010BD0020014084
:1008A00044380240000002400021014070B5044677
:1008B0000D4600262068806800F48060B0F5806FE7
:1008C00011D12068806800F48070B0F5807F0AD173
:1008D000206C40F02000206400BF002084F83C0021
:1008E00000BF012070BD00F0E9FA064618E0681C60
:1008F000B0B125B100F0E2FA801BA84210D92068FF
:10090000006800F0020002280AD0206C40F00400C9
:10091000206400BF002084F83C0000BF0320E1E712
:100920002068006800F002000228E0D16FF0120099
:1009300021680860206C40F40070206420688068A2
:1009400000F04050B8B9207EA8B92068C06A00F411
:10095000700020B12068806800F4806058B9206C75
:1009600020F480702064206C00F4805018B9206C52
:1009700040F0010020640020B4E7000008B5014603
:100980000020009000BF91F83C00012801D1022016
:1009900008BD012081F83C0000BF0868806800F0B5
:1009A0000100A0B90868806840F001000B689860F9
:1009B0003F4800683F4BB0FBF3F000EB4000009075
:1009C00002E00098401E009000980028F9D10868C5
:1009D000806800F00100002860D0086C40F20163DC
:1009E000984340F4807008640868406800F48060B0
:1009F00028B1086C20F4005040F480500864086C62
:100A000000F48050B0F5805F04D1486C20F00600FF
:100A1000486401E00020486400BF002081F83C00E9
:100A200000BF254A6FF022000B681860506800F084
:100A30001F0018BB214B0868984213D0204B086850
:100A4000984204D1101D006800F01F0050B11D4BEA
:100A5000086898422AD11848001D006800F01F005D
:100A6000102823D20868806800F04050F0B9086868
:100A7000806840F080400B68986017E00F4B086872
:100A8000984213D10868806800F0405070B9086837
:100A9000806840F080400B68986007E0086C40F088
:100AA00010000864486C40F00100486400206FE7C3
:100AB0004003002040420F0000230140002001407D
:100AC0000021014000220140F0B50346002603B199
:100AD00009B90120F0BD00BF5879012801D10220D9
:100AE000F8E70120587100BF0220187118680468E7
:100AF00002F0100740F6FE70B8408443D1E90007C9
:100B000040EA070502F0100005FA00F004431868F7
:100B100004601868006802F0100CC02707FA0CF790
:100B2000B8431F6838600120187100BF0020587159
:100B300000BF3046CEE710B504460CB9012010BD09
:100B4000207920B900206071204600F009F80220C9
:100B5000207100202061012020710020EFE70000BB
:100B600010B586B00446142101A8FFF714FC1949FA
:100B7000206888422BD100BF0020009016480068F2
:100B800040F00050144908600846006800F000502A
:100B9000009000BF00BF00BF002000900E4810383A
:100BA000006840F001000C491039086008460068F0
:100BB00000F00100009000BF00BF10200190032052
:100BC00002900020039001A9044800F075F806B0D7
:100BD00010BD000000740040403802400000024098
:100BE00038B50446002000900CB9012038BD2068BB
:100BF000009029B902F10800009D2844009004E00B
:100C000002F11400009D2844009000980360002029
:100C1000ECE710B502460AB9012010BD00BF5079BB
:100C2000012801D10220F8E70120507100BF022005
:100C300010711068006801F010040123A3401843EC
:100C40001368186061B91068006800F03C003C2827
:100C500016D11068406840F00100136858600FE03A
:100C60001068006800F4701301F010043C20A040EC
:100C7000834205D11068406840F002001368586054
:100C80000120107100BF0020507100BF00BFC4E7F9
:100C900070B5044600F012F906462546681C10B1EE
:100CA00004480078054400BF00F008F9801BA84202
:100CB000FAD370BD3C030020F8B502460B46002570
:100CC000002400200021D6E0012606FA01F51E6866
:100CD00006EA0504AC4274D11E7906F00306012E23
:100CE00004D01E7906F00306022E13D190684F003F
:100CF0000326BE40B0434F00DE68BE4030439060E4
:100D0000506801268E40B0431E79C6F300168E400F
:100D1000304350601E7906F00306032E09D0D068D8
:100D20004F000326BE40B0434F009E68BE40304394
:100D3000D0601E7906F00306022E13D1CF0802F10F
:100D4000200656F827004E07F70E0F26BE40B04388
:100D50004F07FF0E1E69BE403043CF0802F1200648
:100D600046F8270010684F000326BE40B0431E79A6
:100D700006F003064F00BE40304310605E6806F484
:100D80004036002E76D000BF002600963C4E3668D6
:100D900046F480463A4F3E603E46366806F480464A
:100DA000009600BF00BF374E8F0856F827008E0709
:100DB000370F0F26BE40B043334EB24202D1002659
:100DC00024E057E0314EB24201D101261EE0304E00
:100DD000B24201D1022619E02E4EB24201D10326C1
:100DE00014E02D4EB24201D104260FE02B4EB24248
:100DF00001D105260AE02A4EB24201D1062605E0BD
:100E0000284EB24201D1072600E008268F073F0F87
:100E1000BE4030431B4E8F0846F82700224E3068F4
:100E2000A0435E6806F4801606B120431E4E306073
:100E3000361D3068A0435E6806F4001606B12043F4
:100E4000194E361D3060184E361F3068A0435E685C
:100E500006F4003606B12043134E361F3060361FAD
:100E60003068A0435E6806F4803606B120430E4E1B
:100E7000083E3060491C1029FFF426AFF8BD000081
:100E8000443802400838014000000240000402409B
:100E900000080240000C0240001002400014024012
:100EA00000180240001C0240083C01400246136941
:100EB0000B400BB1012000E00020704701480068A2
:100EC0007047000034030020034800680349097894
:100ED0000844014908607047340300203C030020A7
:100EE00010B50D48006840F400700B4908600846D2
:100EF000006840F4806008600846006840F4807034
:100F00000860032000F092F80F2000F007F800F0CE
:100F10002BF8002010BD0000003C024070B50446D4
:100F20000E4800784FF47A71B1FBF0F00C49096873
:100F3000B1FBF0F5284600F0F5FB08B1012070BDCB
:100F4000102C07D200222146501E00F031F805482F
:100F5000046001E00120F2E70020F0E73C030020FC
:100F6000400300203803002008B500BF0020009097
:100F70000E48006840F480400C490860084600684C
:100F800000F48040009000BF00BF00BF0020009030
:100F9000081F006840F08050091F0860084600687C
:100FA00000F08050009000BF00BF08BD44380240F0
:100FB0002DE9F05F80460D461646002700F068FFD9
:100FC000074639462A46334601F00700C0F1070AB2
:100FD000BAF1040F02D94FF0040A01E0C0F1070A88
:100FE000D14600F1040ABAF1070F02D24FF0000A0D
:100FF00001E0A0F1030AD4464FF0010A0AFA09FA07
:10100000AAF1010A0AEA020A0AFA0CFA4FF0010BE5
:101010000BFA0CFBABF1010B0BEA030B4AEA0B04D6
:101020002146404600F03CFFBDE8F09F00BF00F0C5
:101030000702064B19684FF6FF031940044B0B4398
:1010400043EA0221014B196000BF70470CED00E03C
:101050000000FA0570B504460D460CB9012070BDBC
:101060005848006800F00700A84209D255490D70A1
:101070000846006800F00700A84201D00120EEE712
:10108000207800F0020002281DD1207800F0040032
:10109000042805D14C48006840F4E0504A490860F3
:1010A000207800F00800082805D14748006840F47F
:1010B0006040454908604448006820F0F000A1689D
:1010C000084341490860207800F00100A8B3606837
:1010D000012807D13C4808380068C0F34040B8B93F
:1010E0000120BCE76068022802D06068032807D1AD
:1010F000354808380068C0F3406048B90120AEE7C1
:10110000314808380068C0F3400008B90120A6E75C
:101110002D48006820F00300616808432A490860F0
:10112000FFF7CCFE064609E0FFF7C8FE801B41F240
:101130008831884202D9032091E707E022480068FD
:1011400000F00C006168B0EB810FEDD11D48006824
:1011500000F00700A84209D91A490D700846006836
:1011600000F00700A84201D0012078E7207800F0C5
:101170000400042807D11448006820F4E050E16816
:10118000084311490860207800F00800082808D1B9
:101190000D48006820F46040216940EAC1000A4916
:1011A000086000F019F808490968C1F30311074AFB
:1011B000515CC8400649086006480068FFF7AEFE6B
:1011C00000204CE7003C0240083802406E26000830
:1011D00040030020380300202DE9F04700240025BB
:1011E0000026A1462548006800F00C0020B1042824
:1011F00005D008283AD105E0DFF8849039E0DFF81F
:10120000849036E01D48001F006800F03F041B4832
:10121000001F006800F4800078B11A481749091FC0
:101220000968C1F38811A0FB017001462246002322
:101230003846FFF739F805460EE011480F49091FF7
:101240000968C1F38811A0FB017001462246002302
:101250003846FFF729F805460848001F0068C0F324
:101260000140401C4600B5FBF6F902E0DFF81090A3
:1012700000BF00BF4846BDE8F087000008380240C4
:101280000024F40040787D01F8B504460CB9012033
:10129000F8BD207800F00100002874D0F9480068FB
:1012A00000F00C0004280DD0F648006800F00C0097
:1012B000082813D1F348001F006800F48000B0F53F
:1012C000800F0BD1EF4808380068C0F34040002879
:1012D00059D06068002856D10120D9E700BF606866
:1012E000B0F5803F08D1E7480838006840F4803006
:1012F000E449083908601EE06068B0F5A02F0DD100
:10130000E0480838006840F48020DE490839086069
:101310000846006840F4803008600CE0D94808387E
:10132000006820F48030D749083908600846006812
:1013300020F48020086000BF606890B1FFF7BEFD18
:10134000054606E0FFF7BAFD401B642801D90320DB
:101350009EE7CC4808380068C0F340400028F1D030
:1013600011E0FFF7ABFD054606E0FFF7A7FD401BC8
:10137000642801D903208BE7C24808380068C0F30D
:1013800040400028F1D1207800F0020002285FD10F
:10139000BC48006800F00C0058B1BA48006800F082
:1013A0000C0008281CD1B748001F006800F480001A
:1013B000B0B9B44808380068C0F3400020B1E06814
:1013C000012801D0012063E7AE480838006820F00A
:1013D000F800216940EAC100AA490839086037E0ED
:1013E000E06800B30120A8490860FFF767FD0546E3
:1013F00006E0FFF763FD401B022801D9032047E701
:10140000A04808380068C0F340000028F1D09D488B
:101410000838006820F0F800216940EAC1009949C5
:101420000839086014E0002097490860FFF746FD7E
:10143000054606E0FFF742FD401B022801D90320C4
:1014400026E7904808380068C0F340000028F1D132
:10145000207800F0080008282CD16069A8B101208C
:101460008A490860FFF72AFD054606E0FFF726FDDA
:10147000401B022801D903200AE782486C3000682B
:10148000C0F340000028F1D014E000207F4908603C
:10149000FFF714FD054606E0FFF710FD401B02288C
:1014A00001D90320F4E677486C300068C0F34000AF
:1014B0000028F1D1207800F00400042870D1002722
:1014C00070483830006800F0805090B900BF0020AC
:1014D00000906C483830006840F0805069493831DD
:1014E00008600846006800F08050009000BF00BF10
:1014F00001276748006800F48070B0B9644800684C
:1015000040F4807062490860FFF7D8FC054606E0A9
:10151000FFF7D4FC401B022801D90320B8E65C4841
:10152000006800F480700028F2D000BFA068012895
:1015300008D154486830006840F0010051496831D2
:1015400008601DE0A06805280DD14E48683000688D
:1015500040F004004B49683108600846006840F0DC
:10156000010008600CE047486830006820F0010086
:101570004449683108600846006820F004000860AB
:1015800000BFA068A8B1FFF799FC054609E0FFF786
:1015900095FC401B41F28831884202D9032077E64E
:1015A00026E0384868300068C0F340000028EED0DC
:1015B00013E0FFF783FC054608E0FFF77FFC401BC4
:1015C00041F28831884201D9032061E62D48683014
:1015D0000068C0F340000028EFD1012F07D129484F
:1015E0003830006820F0805026493831086000BF4C
:1015F000A069002845D02348006800F00C000828A6
:101600005DD0A069022845D100201F490866FFF778
:1016100055FC054606E0FFF751FC401B022801D9A6
:10162000032035E6174808380068C0F340600028FA
:10163000F1D1D4E907010843616A40EA811101222E
:10164000A06AC2EB500041EA00412C20005D41EA53
:1016500000600C49091F086001200B490866FFF76C
:101660002DFC054606E0FFF729FC401B022801D9A6
:1016700003200DE6034808380068C0F340600028E6
:10168000F1D049E00838024000004742800E47424E
:1016900000700040002021490866FFF70FFC054656
:1016A00006E0FFF70BFC401B022801D90320EFE501
:1016B0001B480068C0F340600028F2D12CE0A0690C
:1016C000012800D1E4E51648001D0668A06901283C
:1016D00020D006F48001E06981421BD106F03F0171
:1016E000206A814216D147F6C0703040616AB0EB83
:1016F000811F0FD106F440310122A06AC2EB5000D5
:10170000B1EB004F06D106F070612C20005DB1EB0B
:10171000006F01D00120BBE50020B9E50000474281
:101720000038024070B504462546681EB0F1807F3F
:1017300001D301200FE0681E4FF0E02148610F2126
:101740004FF0FF3000F0ACFB00204FF0E02188614B
:1017500007200861002070BD30B502460B4600BF6F
:1017600092F83C00012801D1022030BD012082F80E
:101770003C0000BF022082F83D00106844681068F9
:10178000816824F070041868044310684460184DA0
:101790001068A8421BD01068B0F1804F17D0154DCB
:1017A0001068A84213D0144D1068A8420FD0134DF2
:1017B0001068A8420BD0124D1068A84207D0114DF6
:1017C0001068A84203D0104D1068A84205D121F03E
:1017D00080015868014310688160012082F83D0053
:1017E00000BF002082F83C0000BF00BFBDE7000042
:1017F000000001400004004000080040000C0040D0
:1018000000040140004001400018004010B50446AB
:101810000CB9012010BD94F83D0028B9002084F8CF
:101820003C00204600F026F8022084F83D00211DEF
:10183000206800F07BFA012084F8460000BF84F89D
:101840003E0001213F200155402001554120015516
:1018500000BF00BF012084F842004320015544200E
:1018600001554520015500BF012084F83D000020AE
:10187000D0E7000008B50168B1F1804F0FD100BF7B
:10188000002100910649096841F00101044A1160F4
:101890001146096801F00101009100BF00BF08BDB9
:1018A00040380240014691F83D00012801D0012056
:1018B0007047022081F83D001A4B086898421BD0FF
:1018C0000868B0F1804F17D0174B0868984213D0C2
:1018D000164B086898420FD0154B086898420BD0F9
:1018E000144B0868984207D0134B0868984203D0FD
:1018F000124B086898420CD10868806800F0070213
:10190000062A0CD00868006840F001000B681860D7
:1019100005E00868006840F001000B6818600020CE
:10192000C6E700000000014000040040000800403D
:10193000000C00400004014000400140001800403D
:101940002DE9F04104460D46002700BF94F83C0005
:10195000012802D10220BDE8F081012084F83C007A
:1019600000BF022084F83D002068866826F07706D4
:1019700026F47F46206886602868502833D00CDC27
:10198000202850D004DC00284BD0102851D149E049
:10199000302849D040284CD139E060282DD070281B
:1019A00007D0B0F5805F03D0B0F5005F41D10DE006
:1019B00041E0D5E902136A68206800F02BFA20683C
:1019C000866846F077062068866034E0D5E9021321
:1019D0006A68206800F01EFA2068806840F4804041
:1019E0002168886027E0EA686968206800F026FAC4
:1019F0005021206800F019FA1DE0EA686968206843
:101A000000F02FFA6021206800F00FFA13E0EA6876
:101A10006968206800F012FA4021206800F005FA99
:101A200009E000BF00BF00BF2968206800F0FDF991
:101A300001E0012700BF00BF012084F83D0000BF86
:101A4000002084F83C0000BF384684E700BFFEE772
:101A50001FB5002000900190029003901A481B4986
:101A600008604FF4803048600021184881600121EF
:101A700001610021017680F82010C1621449816261
:101A80000021C1600221C161002180F830100121D4
:101A90004161FEF765FE08B1FEF795FD012000905B
:101AA00001900020029069460848FEF78FFD08B1BA
:101AB000FEF789FD0220019069460448FEF786FD85
:101AC00008B1FEF780FD1FBD002001404403002047
:101AD0000100000F1FB500200090019002900390BC
:101AE0001548164908604FF48030486000211348BB
:101AF00081600161017680F82010C1621049816225
:101B00000021C1600121C161002180F83010012154
:101B10004161FEF725FE08B1FEF755FD0220009059
:101B2000012001900020029069460448FEF74EFD16
:101B300008B1FEF748FD1FBD002101408C030020C5
:101B40000100000F1CB50020009001900A480B49CD
:101B500008600846FEF7EFFF08B1FEF734FD0020ED
:101B600000900190002269460448FEF7ADFF08B1DD
:101B7000FEF729FD1CBD000000740040D4030020C6
:101B800000B587B0142102A8FEF705FC00BF0020B5
:101B900001901348006840F0800011490860084631
:101BA000006800F08000019000BF00BF00BF00206F
:101BB00001900846006840F001000860084600688F
:101BC00000F00100019000BF00BF01200290002042
:101BD0000390049002A90348FFF76EF807B000BD18
:101BE000303802400000024000B587B0002003906A
:101BF000049005900690019002904FF080401349A8
:101C00000860532048600021104881606321C16052
:101C1000002101618161FFF7F9FD08B1FEF7D3FCF6
:101C20004FF48050039003A90848FFF789FE08B1DC
:101C3000FEF7C9FC00200190029001A90348FFF7BC
:101C40008BFD08B1FEF7BFFC07B000BDE803002024
:101C500000BFFEE700BFFEE77047704710B5FFF713
:101C600033F910BD00B593B0302107A8FEF793FB00
:101C7000142102A8FEF78FFB00BF0020019024482A
:101C8000006840F08050224908600846006800F073
:101C90008050019000BF00BF00BF002001901D4890
:101CA000006840F480401B4908600846006800F462
:101CB0008040019000BF00BF012007900004089001
:101CC00002200D9041050E9119210F914FF4A8713A
:101CD0001091022111910421129107A8FFF7D4FA63
:101CE00008B1FEF770FC0F20029002200390002044
:101CF00004904FF4A05005904FF4805006900521B9
:101D000002A8FFF7A7F908B1FEF75DFC13B000BD0C
:101D100040380240007000400348006840F4700002
:101D2000014908607047000088ED00E010B50268C6
:101D30002D4B98420ED0B0F1804F0BD02B4B9842D8
:101D400008D02B4B984205D02A4B984202D02A4B00
:101D5000984203D122F070024B681A43224B9842FA
:101D600020D0B0F1804F1DD0204B98421AD0204B8C
:101D7000984217D01F4B984214D01F4B984211D055
:101D80001E4B98420ED01E4B98420BD01D4B9842D2
:101D900008D01D4B984205D01C4B984202D01C4BDA
:101DA000984203D122F44072CB681A4322F0800398
:101DB0004C6943EA040202608B68C3620B68836269
:101DC000094B984202D00C4B984201D10B69036336
:101DD00001234361036903F001031BB1036923F08D
:101DE0000103036110BD0000000001400004004039
:101DF00000080040000C0040000401400040014089
:101E0000004401400048014000180040001C004010
:101E10000020004030B50C46816821F47F4142EA41
:101E2000032525432943816030BD0A46816821F09E
:101E3000700142F0070319438160704730B50B46CB
:101E40001446026A056A25F001050562816921F0E0
:101E5000F00141EA041122F00A021A438161026290
:101E600030BD30B50B461446026A056A25F01005F0
:101E70000562816921F4704141EA043122F0A00237
:101E800042EA03128161026230BD00BFFEE700003A
:101E900002480068C0F30220704700000CED00E02B
:101EA00010B5002804DB0A07130E054A135406E098
:101EB0000A07140E034A00F00F031B1FD45410BD71
:101EC00000E400E018ED00E02DED068BFFF708F8C8
:101ED000FFF7C8FEFFF754FEFFF734FEFFF784FE5E
:101EE000FFF7B6FDFFF7F6FD00216F48FEF791FE04
:101EF0006E48FFF7D7FC00240027D4E001216C488E
:101F0000FEF7D4FF012811D187B90CB901240AE0EA
:101F1000012C01D1022406E0022C01D1032402E0AD
:101F2000032C00D10024C820FEF7B2FE0121604836
:101F3000FEF7BCFF074600F0EDF8804600F0D8F849
:101F40008146404600F07DFA41EC1A0B9FED590B9B
:101F500053EC102B00F0F0F841EC190B9FED570BF0
:101F600053EC102B00F080FA41EC180B00F03CFA17
:101F700086B2484600F065FA41EC1A0B9FED4D0B16
:101F800053EC102B00F0D8F841EC190B9FED490BE6
:101F900053EC102B00F068FA41EC180B00F024FA17
:101FA00085B234B1012C22D0022C3ED0032C78D142
:101FB00059E04FF0000A16E0424830F81A00684332
:101FC00040F6FF7190FBF1F01FFA80FB5B460022A8
:101FD00011463548FEF704FE304600F07BF80AF162
:101FE000010000F0FF0ABAF1640FE5DB59E04FF0A1
:101FF000000A16E0344830F81A00684340F6FF71D2
:1020000090FBF1F01FFA80FB5B4600221146264848
:10201000FEF7E6FD304600F05DF80AF1010000F041
:10202000FF0ABAF1640FE5DB3BE04FF0000A16E06F
:10203000264830F81A00684340F6FF7190FBF1F033
:102040001FFA80FB5B46002211461748FEF7C8FDC9
:10205000304600F03FF80AF1010000F0FF0ABAF143
:10206000640FE5DB1DE04FF0000A16E0184830F879
:102070001A00684340F6FF7190FBF1F01FFA80FBF5
:102080005B46002211460848FEF7AAFD304600F0E4
:1020900021F80AF1010000F0FF0ABAF1640FE5DB54
:1020A00000BF00BF00BF29E7D4030020E8030020E1
:1020B000000002400000000000FEAF4000000000F1
:1020C000000024409001002000000020C8000020F3
:1020D000580200200021054A1268516200BF0349DE
:1020E0000968496A8142FAD370470000E80300207A
:1020F00010B50748FEF742FC0A210548FEF7D6FB5B
:1021000020B90348FEF728FB80B210BD0020FCE791
:102110004403002010B50748FEF730FC0A210548AB
:10212000FEF7C4FB20B90348FEF716FB80B210BDD2
:102130000020FCE78C0300202DE9C04130B4DFF81B
:10214000A0C23CEA111418BF3CEA131400F0EC8062
:1021500081EA03051CEA111444EAD57418BF1CEA8D
:10216000131500F0C780A4EB05044FF0004545EAC5
:10217000C12145EAC32341EA505143EA525304F1D5
:102180007F74994204F500344FEAC0204FEAC2221E
:1021900008BF904200F09C804FEA13650FF2401692
:1021A000765D4FEA134506FB05F7C7F1807706FB1E
:1021B00007F74FEAD737A7FB03687642C8F58038A0
:1021C000A7FB06CE38BFA8F1010807FB08E64FF0D1
:1021D000000EA6FB028CE6FB03CEDCF1000CCEF178
:1021E000004E38BFAEF1010EA6FB0C584FF00007B1
:1021F0004FF00005E6FB0E87A1FB08C6A0FB07CE4B
:1022000016EB0E0645F10005E1FB076515F1E04E02
:102210007EBFA4F580345FEA46066D4116F1800763
:1022200045F100054FEA17274FEA066647EA0567BA
:10223000A6F1DE46B6F1805F4FEA15251FD9384674
:1022400024F0010C05EBC471BCF1FE6F01EB0C1125
:1022500002D8F0BCBDE8008124425CBF01F5801EBD
:102260009EEAC47F02D4F0BCBDE80081244238D489
:10227000F0BCA1F1C041BDE8004100F0EDB94FEA6A
:10228000D22242EA43524FEAD323A7FB02864FEA07
:10229000D02040EA415007FB03661EEA0E0F4FEACA
:1022A000D12105FB026658BFA6EB0056B6EB0056DF
:1022B0004FEA520E4EEAC37E18EB0E0E56EB530E4B
:1022C000BDD518EB02085E417F1C55F10005B6E74D
:1022D0004FF480154FF000074FF000064FF0000854
:1022E000ADE7F0BC4FF0000001F1C04101F000414A
:1022F000BDE8008111EA0C1F0CEA131500D00CE0B8
:1023000013EA0C1F00F025804FF00000F0BC81EABA
:10231000030101F00041BDE80081F0BCBDE80041CF
:1023200081EA030100F098B9F0BCBDE8004170B546
:1023300000F044F9097EFC3E00F007B881EA030191
:102340004FF0000001F00041704781EA030100F006
:1023500083B9F0BCBDE800414FF00000214970474F
:10236000FFFDFBF9F7F5F4F2F0EEEDEBE9E8E6E45A
:10237000E3E1E0DEDDDBDAD8D7D5D4D3D1D0CFCDE1
:10238000CCCBCAC8C7C6C5C4C2C1C0BFBEBDBCBB1A
:10239000BAB9B8B7B6B5B4B3B2B1B0AFAEADACAB15
:1023A000AAA9A8A8A7A6A5A4A3A3A2A1A09F9F9EEF
:1023B0009D9C9C9B9A9999989797969595949393A1
:1023C000929191908F8F8E8E8D8C8C8B8B8A898938
:1023D00088888787868585848483838282818180BB
:1023E0000000FF070000F87F4FEA1153A3F5806358
:1023F000D3F11E03A8BFD3F1200C08DB4FF000423D
:1024000042EAC12252EA505232FA03F070470942BE
:102410000BD4102BC4BF0020704703F5787CBCF1AF
:10242000FF3F05D04FF0FF3070474FF0000070477E
:1024300070B500F0C3F800BF4992248000207047B7
:10244000F0E7B0FA80F310FA03F10AD0C3F11D03EC
:1024500003F580634FEA41504FEA035202EBD1216A
:1024600070474FF000007047DFF848C170B51CEAB4
:10247000111E1EBF1CEA13159EEA0C0F95EA0C0FE5
:1024800000F06F8081EA030423EA4C134EEAD47E05
:1024900021EA4C1141F4801143F48013AE44A1FBB6
:1024A000024CA0FB0365AEF17F7E361955EB0C059F
:1024B000A1FB034C4CF10003A0FB021C16EB0C0625
:1024C000654153F10003094218BF46F0010613F4B9
:1024D000007F0BD14FEA03314FEA0530340341EA64
:1024E000155140EA16506FF003020AE04FEAC3218B
:1024F0004FEAC520F40241EA555140EA56506FF0C8
:10250000020202EB2E4201EB025585EACE710AD09F
:102510005FEA440C18BF24F0004450F1000041F180
:10252000000120EAD47040F2FE7C624500D270BD0A
:10253000A84214BF4FF080444FF04044002E08BF23
:102540000024BEF1806FA8BFA1F1C041BDE870407A
:1025500080F282804FF0000001F1C04101F00041A3
:1025600070479EEA0C0F0CEA131518BF95EA0C0F82
:1025700006D04FF0000081EA030E0EF0004170BD5E
:1025800000F01CF88900013E00F007B800F009B81F
:102590004FEA430C5FEA5C5C08D081EA030100F07B
:1025A0005BB84FEA410C5FEA5C5CF6D14FF000008B
:1025B000014970470000FF070000F87F0EF1020E8E
:1025C0002EF0030E5EF8046B364205D4012A43EB6D
:1025D000030515F5001F12D8012841EB010C1CF56D
:1025E000001F0CD80ED14FEAD17C15F5001F0CEB63
:1025F0004C0C0CF1020C08BF4CEBD37C04E04FF008
:10260000080C01E04FEAD37C0CEB4C0526FA05F6EA
:1026100006F00706B6F1040C06D20EEB860CBDE8F8
:1026200070404CF0010C6047DFE80CF0090B02022F
:102630004FF000414FF00000A1F5002170BD194698
:102640001046012851EB010418BFD4F5001484BFD3
:10265000002001F0004170BD0808A0F500114FEA0C
:10266000310170474FF04070E1EE100A70470000F2
:102670000000000000000102030406070809000032
:102680000000010203040000A8260008000000204A
:1026900044030000C401000804290008440300208A
:1026A0004C070000200200082112291252127B124E
:1026B000A412CD12F620BB1F01480171019A01C37B
:1026C00001EC0115023E0267029002B902E2020B20
:1026D0000334035D038603AF03D80301042A0453C4
:1026E000047C04A504CE04F7042005490572059B6B
:1026F00005C405ED0516063F0668069106BA06E311
:10270000060C0735075E078707B007D90702082BB5
:102710000854087D08A608CF08F80821094A09735B
:10272000099C09C509EE09170A400A690A920ABB01
:102730000AE40A0D0B360B5F0B880BB10BDA0B03A7
:102740000C2C0C550C7E0CA70CD00CF90C220D4B4C
:102750000D740D9D0DC60DEF0D180E410E6A0E93F2
:102760000EBC0EE50E0E0F370F600F890FB20FDB98
:102770000F125112A212F3184A44019501E60137D3
:10278000028802D9022A037B03CC031D046E04BF16
:102790000410056105B20503065406A506F60647B2
:1027A000079807E9073A088B08DC082D097E09CF4E
:1027B00009200A710AC20A130B640BB50B060C57E9
:1027C0000CA87818124A0D9B0DEC0D3D0E8E0EDFF5
:1027D0000E300F810FD2041C300FDF101C3D0EECA9
:1027E0001C1C4A0DF9281E570C060CB5381C130B7F
:1027F000C2441C200ACF501C2D09DC5C1C3A08E99D
:10280000681C4707F6741E54060306B2841C1005A4
:10281000BF901C1D04CC9C1C2A03D9A81C3702E6BF
:10282000B41C4401F3C0325112041210122412409D
:102830001264129012C312FD10213F018701D601CC
:102840002B028602E6024C03B603250498040E050B
:10285000870502068006FF067F0714088008182FE8
:10286000097F09FD09780AF10A670BDA0B490CB3F5
:102870000C190D790DD40D290E780EC00E020F3CE7
:102880000F6F0F9B0FBF0FDB0FEF0FFB0FFF041A34
:10289000EF0C1ABF141A6F1C1C020FC0281C290E43
:1028A000D4341810190DB30C490CDA0B670BF10A6C
:1028B000780AFD58111A09601D087F07FF7018106B
:1028C000020687050E0598042504B6034C03E6941A
:1028D0001C2B02D6A01C3F01FDAC1A90B41A40BCC0
:1028E0001A10C401641AFFCA095A02711B20C804D5
:1028F000139001142058026A20DA32104201132486
:04290000F4000000DF
:040000050800018965
:00000001FF
